:060000000A128A11FC2F18
:100EFE00F000700883120313930083160313141C5F
:100F0E00892F8A2F842F08008312031394168316B9
:100F1E0003138712871107168312031314128316F5
:100F2E000313141383120313141094101411941139
:100F3E0083160313941308000730831603138600D9
:100F4E008801831203138801F4010A128A118B2778
:100F5E000A128A1183120313061CB62FB72FC82F3D
:100F6E000130FF007F08F4070230F3004530F20035
:100F7E00A930F100F10BC12FF20BC12FF30BC12FD2
:100F8E00C82F83120313861CCD2FCE2FDD2F0130D9
:100F9E00F4020230F3004530F200A930F100F10BFB
:100FAE00D62FF20BD62FF30BD62FDD2F740883120C
:100FBE0003138800061DE42FE52FB12F74080A12C3
:100FCE008A117F270A128A110230F3004530F2008F
:100FDE00A930F100F10BF12FF20BF12FF30BF12FE2
:100FEE00F82FB12F0A128A11002883010A128A11D2
:020FFE00A32F1F
:02400E00713F00
:00000001FF
