:060000000A128A110C280F
:10000800FE00030EF0000A08F1000A128A114528C2
:100018000A128A110F28F20183010A128A11342860
:100028008312031394168316031387128715071672
:100038009F111F159F101F1085168312031314128A
:100048008316031314138312031314109410141536
:1000580094118316031394138C150B178B17080030
:100068000A128A1114200A128A11831603138601B0
:10007800831203138601720886003F280A128A1128
:100088000C28831203138C1D4A284B284E2813086A
:10009800F2008C1171088A00700E8300FE0E7E0E2D
:0200A80009004D
:02400E00713F00
:00000001FF
